:020000040800F2
:100000007806002021020008290200082B020008BF
:100010002D0200082F020008310200080000000035
:100020000000000000000000000000003302000893
:1000300035020008000000003702000839020008FD
:100040003B0200083B0200083B0200083B0200089C
:100050003B0200083B0200083B0200083B0200088C
:100060003B0200083B0200083B0200083B0200087C
:100070003B0200083B0200083B0200083B0200086C
:100080003B0200083B0200083B0200083B0200085C
:100090003B0200083B0200083B0200083B0200084C
:1000A0003B0200083B0200083B0200083B0200083C
:1000B0003B0200083B0200083B0200083B0200082C
:1000C0003B0200083B0200083B0200083B0200081C
:1000D0003B0200083B0200083B0200083B0200080C
:1000E0003B0200083B0200083B0200083B020008FC
:1000F0003B0200083B0200083B0200083B020008EC
:100100003B0200083B0200083B0200083B020008DB
:100110003B0200083B0200083B0200083B020008CB
:100120003B0200083B0200083B0200083B020008BB
:100130003B0200083B0200083B0200083B020008AB
:100140003B0200083B0200083B0200083B0200089B
:100150003B0200083B0200083B0200083B0200088B
:100160003B0200083B0200083B0200083B0200087B
:100170003B0200083B0200083B0200083B0200086B
:100180003B02000800F002F800F03AF80AA090E8FC
:10019000000C82448344AAF10107DA4501D100F042
:1001A0002FF8AFF2090EBAE80F0013F0010F18BFD5
:1001B000FB1A43F0010318470C0300002C03000056
:1001C000103A24BF78C878C1FAD8520724BF30C883
:1001D00030C144BF04680C60704700000023002455
:1001E00000250026103A28BF78C1FBD8520728BF47
:1001F00030C148BF0B6070471FB51FBD10B510BDA3
:1002000000F029F91146FFF7F7FF00F02CF800F095
:1002100047F903B4FFF7F2FF03BC00F04BF900000D
:100220000948804709480047FEE7FEE7FEE7FEE78A
:10023000FEE7FEE7FEE7FEE7FEE7FEE704480549C6
:10024000054A064B704700002F030008850100088F
:100250007800002078060020780200207802002034
:1002600001460020704710B500F061F8002010BD75
:100270000CB50020019000906B48006840F480307D
:100280006949086000BF6848006800F400300090C9
:100290000198401C0190009818B90198B0F5C06F02
:1002A000F1D16148006810F4003F02D001200090B5
:1002B00001E0002000900098012837D15A4808300A
:1002C00000685949083108600846006840F4004059
:1002D00008600846006840F4A05008605348091FB1
:1002E0000860081F006840F08070091F086000BFA8
:1002F0004D48006810F0007FFAD040F203704C497E
:10030000086049480830006820F003004649083179
:1003100008600846006840F00200086000BF4248DC
:100320000830006800F00C000828F8D10CBD10B5AA
:100330003D48006840F001003B49086000203A4910
:1003400008310860384800683A4908403649086072
:100350003948091D0860081F006820F48020091F23
:100360000860002030490C310860FFF781FF4FF032
:1003700000603249086010BD70B5002000220223E1
:1003800000240221284D08352D6805F00C0020B10D
:10039000042806D0082834D107E0294D294E3560BD
:1003A00033E0294D274E35602FE01F4D2D1D2D6860
:1003B000C5F380541C4D2D1D2D6805F03F0154B12F
:1003C000214DB5FBF1F5184E361D3668C6F388167B
:1003D00005FB06F209E01A4DB5FBF1F5124E361D8C
:1003E0003668C6F3881605FB06F20F4D2D1D2D68E5
:1003F000C5F301456D1C6B00B2FBF3F5114E356082
:1004000003E00F4D0F4E356000BF00BF064D0835AD
:100410002D68C5F303150D4E705D0A4D2D68C5405E
:10042000084E356070BD000000380240193C4005A0
:10043000003C0240FFFFF6FE1030002408ED00E013
:100440000024F4000000002040787D01040000201A
:10045000704770477047754600F028F8AE460500B3
:100460006946534620F00700854618B020B5FFF7CF
:10047000E5FEBDE820404FF000064FF000074FF0CA
:1004800000084FF0000B21F00701AC46ACE8C009B2
:10049000ACE8C009ACE8C009ACE8C0098D467047BB
:1004A0000446AFF300802046FFF7B3FE00487047D4
:1004B0001400002001491820ABBEFEE72600020010
:1004C00070470000E4040008000000201400000051
:1004D000C0010008F80400081400002064060000B1
:1004E000DC010008000E27070000000000000000EB
:0804F0000102030406070809DC
:0400000508000221CC
:00000001FF
